S00F0000504453453030312E7372656358
S31500000000C023FE1F5D3B00002D360000593B00005B
S31500000010593B0000593B0000593B0000000000001E
S31500000020000000000000000000000000593B000036
S31500000030593B000000000000114B0000C54B0000BA
S31500000040A9160000FFFFFFFFFFFFFFFFFFFFFFFFF7
S31500000050FFFFFFFFFFFFFFFFFFFFFFFFFFFFFFFFAA
S31500000060FFFFFFFFFFFFFFFFFFFFFFFFFFFFFFFF9A
S31500000070FFFFFFFFFFFFFFFFFFFFFFFFFFFFFFFF8A
S31500000080FFFFFFFFFFFFFFFFFFFFFFFFFFFFFFFF7A
S31500000400FFFFFFFFFFFDFFFFFFFFFFFFFFFFFFFFF8
S31500000410FFFFFFFFFFFFFFFFFFFFFFFFFFFFFFFFE6
S31500000420FFFFFFFFFFFFFFFFFFFFFFFFFFFFFFFFD6
S31500000430FFFFFFFFFFFFFFFFFFFFFFFFFFFFFFFFC6
S31500000440FFFFFFFFFFFFFFFFFFFFFFFFFFFFFFFFB6
S31500000450FFFFFFFFFFFFFFFFFFFFFFFFFFFFFFFFA6
S31500000460FFFFFFFFFFFFFFFFFFFFFFFFFFFFFFFF96
S31500000470FFFFFFFFFFFFFFFFFFFFFFFFFFFFFFFF86
S31500000480FFFFFFFFFFFFFFFFFFFFFFFFFFFFFFFF76
S31500000490FFFFFFFFFFFFFFFFFFFFFFFFFFFFFFFF66
S315000004A0FFFFFFFFFFFFFFFFFFFFFFFFFFFFFFFF56
S315000004B0FFFFFFFFFFFFFFFFFFFFFFFFFFFFFFFF46
S315000004C0FFFFFFFFFFFFFFFFFFFFFFFFFFFFFFFF36
S315000004D0FFFFFFFFFFFFFFFFFFFFFFFFFFFFFFFF26
S315000004E0FFFFFFFFFFFFFFFFFFFFFFFFFFFFFFFF16
S315000004F0FFFFFFFFFFFFFFFFFFFFFFFFFFFFFFFF06
S315000005004801FE1F10252B302000000020000100AE
S315000005102F0000002F0001000C0001001100000058
S31500000520300000003000010024000000240001001B
S315000005302400020024000300240004002400050017
S315000005401300000017000000230000002100000037
S31500000550210001000700000007000100070002005B
S315000005600700030007000400070005000700060057
S315000005700700070012000000440000000800000009
S315000005800B00000041000000400000004000010098
S3150000059004000000430000002B0000002B000A00AE
S315000005A02B000B002B000C002B000D002B00010074
S315000005B02B0002002B0003002B0004002B0005007B
S315000005C02B0006002B0007002B0008002B0009005B
S315000005D00600000006000A0006000B0006000C00DC
S315000005E006000D0006000E0006000F0006000100C2
S315000005F006000200060003000600040006000500CF
S3150000060006000600060007000600080006000900AE
S315000006101500000015000100150002003100000061
S315000006202A00000045000000100000000301000041
S3150000063003000000030001000F0000000D00000091
S315000006402D000000420000002C0000002C000100DC
S315000006502C0002002C0003003200000028000000DD
S31500000660180000001400000014000100140002002D
S315000006701400030014000400140005001400060012
S3150000068014000700140008001400090034000000DC
S3150000069034000100160000001600010035000000BD
S315000006A03600000036000100220000003300000082
S315000006B0330100002900000010B5054C237833B93A
S315000006C0044B13B10448AFF300800123237010BD1F
S315000006D0B400FE1F00000000545F0000084B10B578
S315000006E01BB108480849AFF300800848036803B9FE
S315000006F010BD074B002BFBD0BDE81040184700BFCC
S3150000070000000000545F0000B800FE1F0C00FE1F32
S315000007100000000070B4104C2368020A9A4216D2F8
S315000007206568C0B200F11006012355F8225003FA9D
S3150000073006F62E420BD069B100EB0210A36853F8FF
S315000007402030C3F3400300200B7070BC70470320B9
S3150000075070BC70471846FBE77C00FE1F084B1A6802
S31500000760000A904201D30320704731B1DA68430191
S31500000770043200209B580B8070470120704700BF51
S315000007807C00FE1F084B1A68000A904201D3032022
S31500000790704739B1DA684301043200209B581B0CBC
S315000007A00B807047012070477C00FE1F144A1368B7
S315000007B0F0B4040A9C421DD25768C5B205F1100672
S315000007C0012357F8244003FA06F6264212D0A1B1B7
S315000007D0D468000A0434400103FA05F2005992B2C3
S315000007E002EA1040904213BF002000200B700870F0
S315000007F0F0BC70470320F0BC70471846FBE700BF0B
S315000008007C00FE1F0C4B10B41C68000AA04200D2EC
S315000008101AB903205DF8044B7047DB685DF8044B9A
S31500000820083303EB401022EA0103114041EA034179
S3150000083041600020704700BF7C00FE1F154BF0B4DE
S315000008401C68020AA2420AD25E68C7B207F1100506
S31500000850012456F8222004FA05F5154202D1032098
S31500000860F0BC70470129FAD8DB6800F47F4003F139
S31500000870080303EBD00008D04368BC4043EA0444B5
S31500000880240C240444600020EAE74468B9400C4381
S31500000890A4B2F7E77C00FE1F40B101230621022225
S315000008A001704370C370827000207047012070474A
S315000008B0012901D903207047114A1368F0B4040ACC
S315000008C09C4216D25768C5B205F11006012357F8A7
S315000008D0244003FA06F626420BD000F47F40AB40D4
S315000008E051B91B04D268C008083219438150002050
S315000008F000E00320F0BC704799B20023F2E700BF86
S315000009007C00FE1F012901D9032070472C4BF0B54E
S315000009101C68020AA2424ED25D68C0B200F11006FF
S31500000920012455F82250B4402C4244D000EB02106A
S315000009309C681D6954F8203000293ED043F004011C
S31500000940204E0E40EFF31087012383F310881E4BD1
S315000009501A8892B222B94FF0400EEA7085F803E089
S315000009601A88013292B21A8087F31088CF0354F89E
S31500000970202007D5154F22F480320F4044F820205E
S3150000098044F8207044F82060EFF31081012282F3CE
S3150000099010881A880C4892B21AB10288013A92B2AB
S315000009A002801B889BB213B98022EB70EA7081F338
S315000009B010880020F0BD0320F0BD23F00401BFE73E
S315000009C07C00FE1FD5FC011FD000FE1FD5FC001FBA
S315000009D00AB9032070470B4B10B41C68000AA042EA
S315000009E003D303205DF8044B7047DB6822EA010459
S315000009F0400108330A4042EA0442C2505DF8044B03
S31500000A00002070477C00FE1F0AB9032070470D4B7B
S31500000A1070B41C68000AA04202D3032070BC704761
S31500000A204001DD682E582B5802EA01043443A4B273
S31500000A3061EA02021B0C22401B041A432A500020C2
S31500000A4070BC70477C00FE1F2DE9F041002839D0AC
S31500000A5009681E4D002701EBC000B8464FF0010E95
S31500000A608C88002335F81320A24218D00133032BBB
S31500000A70F8D108318142F3D1FF43FFB2012003F0E0
S31500000A803BF8134A92F8BB3448EA030808EA07071A
S31500000A9082F8BB740120BDE8F04102F0FDBF0A6890
S31500000AA002F0B852B2F1807F05D00EFA03F647EA9B
S31500000AB00602D7B2DAE70EFA03F248EA02085FFA4C
S31500000AC088F8D3E78046FF27D8E700BF44550000E3
S31500000AD000E0014070B582B002AB002403F8044D7B
S31500000AE0054618460E4602F081FD9DF80430DB07E8
S31500000AF002D4062002B070BD202D02D9032002B018
S31500000B0070BD012EFAD8084B1A69137805D02B430D
S31500000B1003F0300320461370ECE703F0300323EABA
S31500000B20050520461570E5E77C00FE1F002867D006
S31500000B302DE9F84F4368002B5FD00146804631F817
S31500000B40040BFFF781FFB8F80030002B52D02D4C74
S31500000B50DFF8B4E0A146002201204FF0400B4FF031
S31500000B60800AD8F80430DEF8107053F83260DEF8E8
S31500000B70085003EBC20399880B0AC9B201EB0313B1
S31500000B80EFF3108C80F31088218889B211B9F970BF
S31500000B9087F803B02188013189B221808CF310884F
S31500000BA016F4803F55F8231007D021F4803126F43F
S31500000BB0803C45F8231045F823C045F82360EFF341
S31500000BC0108180F3108823889BB22BB1B9F80030CE
S31500000BD0013B9BB2A9F8003023889BB213B9FB7086
S31500000BE087F803A081F310880132B8F8003092B27A
S31500000BF09342B6D80020BDE8F88F0120BDE8F88FF3
S31500000C0001207047D000FE1F7C00FE1F002832D056
S31500000C104368002B2FD0F0B587B006AC002309211E
S31500000C200193164A04F8141D154ED768029305461B
S31500000C3003930493059302A92046B8474FF00A0C84
S31500000C40029ABDF80C308DF804C002A9F260204665
S31500000C50059A72603360B8470122029B8DF8052021
S31500000C6002A92046B360B847029B33612846FFF7C6
S31500000C705DFF07B0F0BD0120704700BF00560000C1
S31500000C807C00FE1F2DE9F041304C2268050A954292
S31500000C9084B003460CD26268C6B20F464FF0010814
S31500000CA006F1100152F8252008FA01F1114203D18C
S31500000CB0032004B0BDE8F08104A902AA41F80C2D76
S31500000CC04046ADF80C300297ADF8008006EB0515EE
S31500000CD0FFF7BAFE2069A268EFF3108488F3108844
S31500000CE01B490B889BB213B94026C370C6700B888C
S31500000CF001339BB20B8084F31088FC0352F8253035
S31500000D0007D523F4803327F4803442F8253042F89F
S31500000D10254042F82570EFF31082012383F31088F3
S31500000D200B880B4C9BB25BB90B889BB213B9802125
S31500000D30C370C17082F31088002004B0BDE8F08152
S31500000D402388013B9BB22380EEE700BF7C00FE1F99
S31500000D50D000FE1F20B1034B1B68036000207047C4
S31500000D6001207047745500002DE9F04782B002ACAF
S31500000D70002544F8045D3C4D8946AF69824690469D
S31500000D80214603201E464C460025B847B8F1060FFB
S31500000D9034D8DFE808F00F374953575B04000021C9
S31500000DA04FF47A7202FB09F20B46019804F09AF8A6
S31500000DB004460D469AF81330012B07D000230A9AF1
S31500000DC000201370346002B0BDE8F0874FF6FF7064
S31500000DD00021A94208BFA0424FF00003EFD2A208AB
S31500000DE0AF0842EA8572B94203F1010308BF904297
S31500000DF014463D46DBB2E2D2052BF0D1032002B009
S31500000E00BDE8F087019816A3D3E90023A9FB0001EA
S31500000E1004F068F804460D469AF81330012BD5D035
S31500000E204FF0FF300021D4E70198104A0023A9FBB8
S31500000E30000104F057F804460D46EDE701984FF41B
S31500000E407A72F3E7019CA9FB0445E5E72B464A467F
S31500000E500198002104F046F804460D46AAE700BFB3
S31500000E6000CA9A3B000000005C56000040420F009A
S31500000E70012A70B506461C462FD02AD3022A15D160
S31500000E80A1FB0301194A0023002504F02BF8012ECB
S31500000E900ED0A94208BFA04215D0002908BFB0F164
S31500000EA0FF3F10D08D4208BF84420ED2032070BD92
S31500000EB014F1FF3245F1FF33101A63EB01018D4245
S31500000EC008BF8442EED14FF0FF30049B186000202B
S31500000ED070BD084600250021D9E7A1FB0301642265
S31500000EE00023002503F0FEFFD1E700BFA086010026
S31500000EF068B1084BC2689A4201D0072070478368E0
S31500000F002BB1DA6A22F00102DA6200207047012072
S31500000F10704700BF5450470068B1084BC2689A42F8
S31500000F2001D00720704783682BB1DA6A42F00102CC
S31500000F30DA62002070470120704700BF5450470016
S31500000F4030B129B1074BC2689A4203D007207047D7
S31500000F50012070478368002BFAD09B6C0B60002041
S31500000F60704700BF5450470000B3114BC2689A4205
S31500000F7001D0072070478368C3B130B4EFF3108403
S31500000F80012383F310888368DA6AD96A002021F086
S31500000F900101D9629864DD6A02F0010125F00102BF
S31500000FA00A43DA6284F3108830BC70470120704728
S31500000FB05450470078B170B51D4CC568A54284B041
S31500000FC002D0072004B070BD8468002C2ED021B951
S31500000FD0032004B070BD012070470DF10B030025FE
S31500000FE0009303AB044603958DF80B50FFF7BCFE48
S31500000FF00028E7D1A368DA6AD96A21F00101D9622B
S31500001000D96A9DF80B4021F0E06104F0070441EA3B
S315000010100461D9620399013959669864D96A02F064
S31500001020010221F001010A43DA62CBE70120C9E798
S315000010305450470030B129B11E4BC2689A4203D0C2
S3150000104007207047012070472DE9F041876882B07C
S315000010506FB37B6E0E4602A900250133B36041F8DB
S31500001060045DFA6A04461448C2F3026883690320E1
S3150000107098474FEA4808012303FA08F2019BB3FB9D
S31500001080F2F373603B6B03F001033370FB6A13F0FA
S31500001090010F0CBF01232B463373237C03EB830321
S315000010A05B00B6332846F38102B0BDE8F08101202B
S315000010B0FAE700BF545047005C56000000B3F0B595
S315000010C02A4CC568A54285B002D0072005B0F0BD00
S315000010D08768BFB104AE0446002046F8040D1D46DD
S315000010E07B6E207D00960133FFF7C2FE0028EDD10E
S315000010F0039BA26843B98DB1012D24D01846E5E7BC
S31500001100012070470120E1E7591C14D075B9116B15
S3150000111021F44031116328465365D7E7136B23F456
S31500001120403343F4003328461363CFE7012D18D02C
S3150000113093650020CAE775B1012DC7D1136B43F043
S3150000114040731363C2E7116B21F0407141F00071E7
S3150000115018461163BAE7136B43F44033284613630A
S31500001160B4E7116B21F040711163E1E75450470079
S31500001170002847D0244BC2689A4201D00720704706
S315000011808368002B3ED030B59A6B22F0C0029A637A
S31500001190DA6A22F00102DA62817C4AB2002A83B05E
S315000011A00DDB520920320124184D01F01F0104FA0B
S315000011B001F145F82210BFF34F8FBFF36F8FDA8E20
S315000011C022F48072DA869A8E044622F4807202A88D
S315000011D000252B219A860195237C00F8041DADF885
S315000011E0063002F011FC94F91230657413F1210FE8
S315000011F004D0074A126852F833301D600020E060C0
S3150000120003B030BD012070475450470000E100E0B4
S31500001210585B0000002962D0002860D02DE9F0411B
S31500001220A94F8AB000230C460546487C04932B211F
S31500001230ADF812008DF81010FA688DF80B30039394
S31500001240069307930893099304A806A990470646B0
S3150000125010B10AB0BDE8F0810AAA069942F8140D49
S315000012603B69A96004A80621BDF81E809847BDF811
S315000012701E309DF81420AA745B075CBF0123EB7433
S315000012800DF10B0348BFEE746168227A009328467D
S3150000129003ABFFF769FD0028DBD16369002B00F083
S315000012A0638195F91220213225D0A2696A602B60EC
S315000012B0637C2B742378012B00F05B81E1690022AB
S315000012C008792875022B6A7406920AD004A802F0DF
S315000012D067FB074688B108200AB0BDE8F081012007
S315000012E0704706AEE168227C039B0096FFF7C0FDBF
S315000012F00028EBD0ADE70B20ABE7AE6804A802F000
S31500001300EDFAF16A4FEAD8084FF0FF3321F00101F8
S315000013104FF4254E012028F00102F162C6F800E0E4
S31500001320376177617761F76137627762B762F76233
S3150000133030637763B763F7633764B764F364336521
S315000013407365B3657366B366C6F88870C6F88C3085
S315000013508AB17764F3663367F3677367C6F88030DC
S31500001360B367C6F88430C6F89030C6F89430C6F82D
S315000013709830C6F8A070AE680698F36A9DF80B1010
S31500001380039A23F4E023F362336B43F002033363DF
S31500001390336B43F001033363336B23F00203336390
S315000013A0F36A01F0070123F0E06343EA0163013ABF
S315000013B00021F3627266B164E36933B11A78002AD8
S315000013C040F088809A78002A3CD1B36B23F0C003A2
S315000013D043F04003B3636369002B00F0D180A87C1F
S315000013E03A4AA37C126841B20029C0F2B58001F1E5
S315000013F060401B0100F56140DBB280F8003352F813
S31500001400313095F912001D6002F09EFAAA7C53B2A3
S31500001410002B0DDB5B099B0003F1604303F5614381
S3150000142002F01F02012101FA02F2C3F880211A60BC
S31500001430E37C1BB1F36A43F00103F362244BEB60D8
S31500001440002006E7AA68D978938E277801F0010E66
S3150000145023F0100343EA0E139386938E01F0030ED6
S3150000146023F0C00343EA8E139386938E012F43F035
S315000014700C03938600F08E80002F00F086802B7D73
S31500001480002B40F0D880938E23F0030343F0010332
S315000014909386938E23F00C0343F008039386136C14
S315000014A023F4402343F480231364136B002840F095
S315000014B0B48023F0407343F000731363938E43F4B8
S315000014C08073938681E700BF00560000585B0000DA
S315000014D054504700AA6893F801E0D78E94F800C0EC
S315000014E00EF0010827F0100747EA0817D786D78EAF
S315000014F00EF0030827F0C00747EA8817D786D78E6D
S31500001500BCF1010F47F00C07D78667D0BCF1000F7E
S315000015105FD0297D002940F09B80D18E21F0030108
S3150000152041F00101D186D18E21F00C0141F0080174
S31500001530D186116C21F4403141F480311164116B74
S31500001540002871D121F4403141F400311163D18E6C
S3150000155041F48071D18635E7524F00F00F001B0130
S315000015600744DBB23B764AE72278012A7FF4A0AE35
S3150000157097E6E2696B7413792B7500230693A5E64B
S315000015802378012B7FF454AF29E7938E23F00303CE
S31500001590938693E700231365136C23F4402343F4E7
S315000015A080231364EB7C012B0CBF4FF6FF734FF0C7
S315000015B0FF339365938E23F00303002955D143F03F
S315000015C002039386938E23F00C0343F00403938661
S315000015D074E7D18E21F00301D186B8E7D164116C8E
S315000015E021F4403141F480311164E97C01290CBFBA
S315000015F04FF6FF714FF0FF315165D18E21F0030197
S31500001600BEF1000F3BD141F00201D186D18E21F00F
S315000016100C0141F00401D18699E7411C39D023F031
S3150000162040731363906549E7471C36D021F4403177
S31500001630116350658BE7938E23F0030343F0020397
S315000016409386938E23F00C0343F00403938626E7D8
S31500001650D18E21F0030141F00201D186D18E21F015
S315000016600C0141F00401D18663E743F00103938640
S31500001670938E23F00C0343F0080393861EE741F094
S315000016800101D186D18E21F00C0141F00801D186ED
S315000016905DE743F04073136310E741F44031116393
S315000016A055E700BFFCEC00E010B5012082B002F067
S315000016B0EBFDEFF30383174A103B12685BB252F857
S315000016C033301C68EFF30380103840B202F03CF967
S315000016D05CB1627CA3686AB9236833B16268009220
S315000016E000228DF8042068469847012002F0CAFDC2
S315000016F002B010BDDA6A002122F00102DA629964B2
S315000017009A6B22F0C0029A63DA6B22F04002DA6327
S31500001710E2E700BF585B0000024658B1064B074996
S315000017201B68002B08BF0B460020596803EB81039A
S3150000173013607047012070479000FE1F005700009D
S3150000174088B10A4B1B6863B15A6800F1100103EBBC
S31500001750820353F8042F40F8042B8842F9D1002065
S3150000176070471C2070470120704700BF9000FE1F85
S3150000177070B36AB3174BF0B51E681EB3164B0778E5
S315000017801B68002404E00134B44203F1080319D0B5
S315000017909D79BD42F7D193F805E04588B5EB9E0FDC
S315000017A0F1D1DD7990F801E005F0070CF445EAD1B6
S315000017B0B1EBD50FE7D19B881470C3F309035380AF
S315000017C00020F0BDDF21FF23117053800B20F0BDF8
S315000017D0012070470801FE1F585B000020B1034B33
S315000017E01B680360002070470120704718560000F0
S315000017F070B42A4C216851B1234604F57F7000224B
S3150000180001E053F8041F83420A44FAD11AB100BE1C
S315000018101D2070BC7047224D22482A600368190CAF
S31500001820B1F5807F02D0002070BC7047196801397D
S315000018300331F8D81C495E6A8E42F4D12B600168E8
S315000018406368486804EB830301EB800101F1230020
S31500001850233301214FF47E4503E001320131013883
S31500001860013B25FA02F4E40707D5072A10D0082A17
S3150000187007D01E780478A642C9D11029EDD10020E0
S31500001880D2E70478372CE8D01E78A642E5D0BEE72A
S3150000189006781C78A642E0D2B9E700BF00570000E0
S315000018A09000FE1F9CB17F405237465300285ED001
S315000018B000295CD08B4B2DE9F0439A6890F800C064
S315000018C003EB82029478A44537D24FEA1C1802EB48
S315000018D088060CF00F073589D2F804E025FA07F9D7
S315000018E019F0010F29D0072FB67A09D902EB88081B
S315000018F00CF0070798F80BC00CF00F0C66442D0A85
S31500001900DFF8E481DFF8E4C118F80780754F08EACC
S31500001910050524091CF80550023402EB8402AC19B3
S3150000192002EB440532F814206C78C2F3090225064E
S3150000193003EB820305D4002B4BD14FF4AF60BDE817
S31500001940F08317F8222045785208FDB14FF0020EB9
S31500001950012604271C78E40705F1FF3552D5052A30
S3150000196000F2BE80DFE802F0332D211C1A050120AB
S3150000197070479A781EFB0264033204EB92029200CF
S3150000198013441A7854082246002DE3D1042A00F2A3
S31500001990A480DFE802F0636363503B000822EFE7B0
S315000019A09A7817FB02629200EAE793F804C09C78E3
S315000019B014FB0CF2D41C0CF1030204EB920292000D
S315000019C0DEE71A79033222F003020C32D8E70C2242
S315000019D0D6E74478B4B9DC78C4F303144C72DC78E7
S315000019E00125C4F303048C728D804088002843D1FE
S315000019F037F822200EEB02220A609B78CB80087211
S31500001A00C86015E040F27950BDE8F083DA78C2F399
S31500001A1003124A72DA78C2F303028A725878C880CF
S31500001A2000228A800A72CA605B680B608307E9D568
S31500001A300020BDE8F083DA78C2F303124A72DA783E
S31500001A40C2F303028A725A78CA809A788A8004336B
S31500001A5004200022CB6008720A60E9E7DC78C4F350
S31500001A6003144C72DC78C4F303048C721D79ACB297
S31500001A708C804088844203D840F27A50BDE8F083D7
S31500001A80DC889E68012A04FB00640C601CD0022AD4
S31500001A900AD09C785B78002243EA0424CC800A7240
S31500001AA0CA60002CE8D0C3E71C18EA1C247BCC8053
S31500001AB09D780D72920805FB002003EB80030C3322
S31500001AC0CB60002CD8D0B3E7034400221C7BCC802B
S31500001AD00A72CA60002CCFD0AAE76420BDE8F08362
S31500001AE000224DE7005700007855000080550000A1
S31500001AF0034B04301B6823F820100020704700BFFA
S31500001B00D400FE1F034B021D1B68002023F8220091
S31500001B10704700BFD400FE1F034B1A68137863F0AA
S31500001B207F03137000207047D400FE1F034B1A6812
S31500001B30137803F07F03137000207047D400FE1F54
S31500001B4020B1034B1B6803600020704701207047DB
S31500001B503856000060B1012808D1094B1B680020E7
S31500001B6040214122187119711A717047012070477E
S31500001B70034B1B6840214122987099709A707047F8
S31500001B80D400FE1F002836D070B51C4986B000234D
S31500001B900B22019302930393049305930546CB68A6
S31500001BA08DF8042001A802A99847044608B106B09A
S31500001BB070BD134E029B336001A801F08FFE6B6867
S31500001BC073B130682346AA6812F8231002EB830229
S31500001BD00431528820F821206A6801339A42F2D8EB
S31500001BE028780028E3D032681378002063F07F035A
S31500001BF0137006B070BD0120704700BF005600008C
S31500001C00D400FE1F094A0A4B12680A48916910B4AB
S31500001C10D46919604FF400420021DC6058605961B4
S31500001C209A601A615DF8044B704700BFAC00FE1F56
S31500001C309400FE1F00127A00374B1B6893F8283079
S31500001C4013F030023DD0102A0DD0202A3AD0DFED15
S31500001C50337A334AF0EE676A67EEA67AFCEEE77AE5
S31500001C60C2ED057A7047028D2E4902F0030231F863
S31500001C70121000294CD05B0610B44AD5038D13F020
S31500001C80100F0CBF03240024254A038D52F82400AC
S31500001C905DF8044B07EE900AB8EE677A07EE901AE5
S31500001CA0B8EE676AC3F30523C7EE067A013306EE7C
S31500001CB0903AFAEEEF6A67EEA67AFCEEE77AC2EDA4
S31500001CC0057A704790F82B30174A9B0932F81310A3
S31500001CD00029F6D0124A90F82B30D2ED037A03F0A1
S31500001CE01F03B8EE677A06EE903A07EE901AF8EE02
S31500001CF0666AB8EE676AF7EE007A76EEA76AC7EE0E
S31500001D00067A67EEA67AFCEEE77AC2ED057A7047A8
S31500001D1070470324B8E700BFAC00FE1F00000000B8
S31500001D209400FE1F445600003C560000F8B50D4BCB
S31500001D301B68064693F8205093F8217000200C4645
S31500001D4001F0DAFE96F81324E9B2BC400C4022EA10
S31500001D50010344EA030186F813140020BDE8F840A5
S31500001D6001F09ABEAC00FE1FF8B50D4B1B68064687
S31500001D7093F8225093F8237000200C4601F0BCFE25
S31500001D8096F88124E9B2BC400C4022EA010344EAF9
S31500001D90030186F881140020BDE8F84001F07CBEFE
S31500001DA0AC00FE1F38B505460C46002001F0A4FE27
S31500001DB0052C0AD8DFE804F019242F033A0E95F80B
S31500001DC0323023F0010385F832300020BDE8384078
S31500001DD001F062BE95F82A3023F0010385F82A3017
S31500001DE00020BDE8384001F057BE95F8363023F0A4
S31500001DF0010385F836300020BDE8384001F04CBEBE
S31500001E0095F8383023F0010385F838300020BDE816
S31500001E10384001F041BE95F8903423F0010385F86F
S31500001E2090340020BDE8384001F036BE95F8803485
S31500001E3023F0010385F880340020BDE8384001F026
S31500001E402BBE00BF38B505460C46002001F054FEF7
S31500001E50052C0AD8DFE804F019242F033A0E95F86A
S31500001E60323043F0010385F832300020BDE83840B7
S31500001E7001F012BE95F82A3043F0010385F82A30A6
S31500001E800020BDE8384001F007BE95F8363043F033
S31500001E90010385F836300020BDE8384001F0FCBD6E
S31500001EA095F8383043F0010385F838300020BDE856
S31500001EB0384001F0F1BD95F8903443F0010385F800
S31500001EC090340020BDE8384001F0E6BD95F8803436
S31500001ED043F0010385F880340020BDE8384001F066
S31500001EE0DBBD00BF03290ED0052907D009B10020AC
S31500001EF0704790F83C0000F00100704790F83C00F5
S31500001F00C0F34010704790F83C00C0F3C000704723
S31500001F1005292ED8DFE801F00A11181F260390F8CC
S31500001F202A0000F0010080F00100704790F83600AA
S31500001F3000F0010080F00100704790F8380000F0D2
S31500001F40010080F00100704790F8900400F0010055
S31500001F5080F00100704790F8320000F0010080F038
S31500001F600100704790F8800400F0010080F0010045
S31500001F7070470020704700BF036A90F8263070470C
S31500001F8038B5054600200C4601F0B6FD95F8133429
S31500001F9004F0010123F0400343EA811185F813148C
S31500001FA00020BDE8384001F077BD00BF38B50546D2
S31500001FB00020144601F0A0FD95F8A22004F00F04BD
S31500001FC022F00F02144385F8A2400020BDE83840F5
S31500001FD001F062BD084B1B6893F8283013F0300FF0
S31500001FE004D104288CBF00200120704705288CBF2F
S31500001FF000200120704700BFAC00FE1F90F82600AD
S3150000200000F00700704700BF38B5054600200C46B3
S3150000201001F072FD95F8261004F0070421F007017F
S315000020200C4385F826400020BDE8384001F034BD59
S31500002030074B1B6893F828305B0601D403207047D2
S31500002040038D13F0100F0CBF03200020704700BF54
S31500002050AC00FE1F38B5044600200D4601F04CFDCD
S31500002060238D032D0CBF23F0100343F010032385AB
S315000020700020BDE8384001F00FBD00BF38B5224C46
S315000020802DED028B236893F8283003F03003102BD4
S315000020900546B0EE408A1CD0202B02D0BDEC028B48
S315000020A038BD002001F028FDFCEEC87A95F82B100B
S315000020B017EE903A013B03F01F0221F01F03134372
S315000020C085F82B30BDEC028B0020BDE8384001F0CE
S315000020D0E3BC002001F010FD78EE087A2A8DFCEEB4
S315000020E0E77A22F47C5217EE903A013B03F03F0365
S315000020F042EA03232B85002001F0CEFC236893F8E7
S31500002100283003F03003C7E7AC00FE1F70B51E4C45
S31500002110236893F8283003F03003102B82B005466D
S3150000212019D0202B01D002B070BD184B002033F817
S31500002130114001F0E1FC95F82B3004F0030403F0A4
S315000021403F0343EA8413002085F82B3002B0BDE834
S31500002150704001F0A1BC0E4B0191002033F81160D4
S3150000216001F0CAFC2B8D06F0030623F003031E4381
S315000021702E85002001F090FC2368019993F8283001
S3150000218003F03003CDE700BFAC00FE1F545600003D
S315000021904C56000038B51A4B1A6892F8293092F856
S315000021A02A200546180748BF08784FF0000448BFA4
S315000021B060F30E34D80644BF487860F30A249806C4
S315000021C044BF887860F30614580644BFC87860F3A5
S315000021D00204D20744BF0A7962F312441B0644BFC5
S315000021E04B7963F31E748B79002063F31A6401F054
S315000021F083FC2C620020BDE8384001F04DBC00BFD6
S31500002200AC00FE1F036AC3F302330B70036AC3F309
S3150000221002234B70036AC3F302138B70036A03F045
S315000022200703CB70036AC3F302430B71036AC3F35C
S3150000223002734B71036AC3F302638B71704700BF6D
S31500002240144B42781B6893F8241091421ED393F8DE
S31500002250262090ED017A07EE902AF8EE677AF4EEE2
S31500002260C77AF1EE10FA11D493F8253007EE903ABA
S31500002270F8EE677AB4EEE77AF1EE10FA06D4007853
S31500002280032805D0B0FA80F0400970470020704757
S3150000229001207047AC00FE1F062921D8DFE801F0B7
S315000022A0080C1014181C0400006AC0F30260704782
S315000022B0006AC0F302307047006AC0F3022070471C
S315000022C0006AC0F302107047006A00F0070070470A
S315000022D0006AC0F302407047006AC0F3027070479C
S315000022E00020704710B50446FFF7D6FF94F8263055
S315000022F0034A03F0070352F8233023FA00F010BD17
S315000023009400FE1F024B53F82000C840704700BFE0
S315000023109400FE1F30B5044683B001200D4601F03F
S31500002320EBFB02A8002300F8013D01F03DF894F80C
S31500002330AA30D806FBD494F8A030D906F7D494F87E
S31500002340AA3023F0010384F8AA3094F8AA30DA06FA
S31500002350FBD494F8A030DB06F7D4042D2BD094F8E8
S31500002360A02005F0030322F00302134384F8A030F3
S3150000237094F8AA30D806FBD494F8A030D906F7D43E
S3150000238094F8AA30042D0CBF43F0010323F0010397
S3150000239084F8AA3094F8AA30DA06FBD494F8A03070
S315000023A0DB06F7D49DF8070001F012F8012001F0D2
S315000023B073FB03B030BD94F8A03043F0030384F8F8
S315000023C0A030D5E790F8AA30DB075ABF90F8A000F6
S315000023D000F003000420704710B50446002001F009
S315000023E08BFB94F8403063F07F0384F8403094F818
S315000023F0403043F0010384F840300020BDE810402F
S3150000240001F04ABB10B50446002001F075FB94F8B4
S31500002410403023F0010384F8403094F8403003F054
S315000024207F0384F840300020BDE8104001F034BB43
S3150000243090F84000C009704790F8410000F0010094
S31500002440704700BF38B590F8413013F0010401D150
S31500002450002038BD0546002001F04EFB95F84130BE
S3150000246023F0010385F84130002001F015FB2046DA
S3150000247038BD00BF38B5054600200C4601F03CFBD0
S3150000248095F8301004F0010421F001010C4385F8A1
S3150000249030400020BDE8384001F0FEBA10B50446D1
S315000024A0002001F029FB94F8523043F0010384F830
S315000024B052300020BDE8104001F0EEBA10B50446D7
S315000024C0002001F019FB94F8523023F0010384F840
S315000024D052300020BDE8104001F0DEBA70B5044667
S315000024E000200D46164601F007FB94F83E3003F037
S315000024F07F0384F83E3094F83E3006F0070223F05E
S31500002500700343EA021284F83E2094F83E1005F068
S31500002510070521F007010D4384F83E500020BDE871
S31500002520704001F0B9BA00BF10B50446002001F0B2
S31500002530E3FA94F83E3063F07F0384F83E300020DF
S31500002540BDE8104001F0A8BA10B50446002001F01D
S31500002550D3FA94F83E3003F07F0384F83E3000202F
S31500002560BDE8104001F098BA10B50446002001F00D
S31500002570C3FA94F8533043F0010384F85330002033
S31500002580BDE8104001F088BA10B50446002001F0FD
S31500002590B3FA94F8533023F0010384F85330002043
S315000025A0BDE8104001F078BA38B5054600200C4663
S315000025B001F0A2FA95F8243004F0070123F0700325
S315000025C043EA011185F824100020BDE8384001F0E7
S315000025D063BA00BF124B70B41D681A6892071BD508
S315000025E00021104C196094F823200138B0F1807F47
S315000025F0D2B20DD2F026072502F0F002586084F818
S31500002600236099601D6084F82320012070BC704708
S315000026101D60084670BC7047012070BC704700BF43
S3150000262010E000E000ED00E090F8503001F00F01FE
S3150000263023F00F03194380F85010704790F85000AC
S3150000264000F00F00704700BF90F8503063F07F0332
S3150000265080F85030704700BF90F8503003F07F0389
S3150000266080F85030704700BF90F85000C00970479E
S3150000267090F8D13021B123F0010380F8D1307047B2
S3150000268043F0010380F8D130704700BF90F8D13095
S3150000269063F07F0380F8D130704700BF90F8D130E7
S315000026A003F07F0380F8D130704700BF90F8D10067
S315000026B0C009704738B5054600200C4601F01CFAE3
S315000026C095F8A51004F0070421F007010C4385F8DE
S315000026D0A5400020BDE8384001F0DEB920B1034B2B
S315000026E01B6803600020704701207047D056000029
S315000026F030B52A4C87B0204600F07EFF06A8284B4E
S31500002700002503220095DB6800F8182D02A9029522
S315000027100395049505959847029860604FF6FF73F8
S3150000272029460193FFF7F4FB28B910E0019B43B15A
S31500002730019B013B019360680021FFF7D3FB002852
S31500002740F4D0019B1BB94FF4CD7007B030BD606863
S315000027500621FFF7AFFF4FF6FF730193FFF752FA1B
S3150000276060680421FFF76EFB04E0019B43B1019B07
S31500002770013B019360680421FFF7CAFB0028F4D1EE
S31500002780019B002BDFD0606804210522FFF7F4FBD4
S3150000279060680021FFF7E8FA0020D6E7AC00FE1FCC
S315000027A00056000070B169B170B5074E04467068F6
S315000027B00D46FFF723FC294620707068FFF722FDBF
S315000027C0002070BD01207047AC00FE1F70B582B0BE
S315000027D0002940D0054600283AD0344C6068FFF7FF
S315000027E0F1FD0428064633D060686946FFF70AFD06
S315000027F023689A680AB1032E37D0DA68F2B1022E3E
S315000028001CD193F829205969160733D4D00638D439
S3150000281096063BD450063ED4120603D59DF80520F5
S315000028208A422BD393F82A30DB0703D59DF8043070
S315000028308B4223D39DF806308B421FD329460120B5
S3150000284000F0ECFE6068FFF7C7FD002002B070BD27
S31500002850012002B070BD154D6868FFF7EDFD044616
S31500002860F0B14FF4CB7002B070BD93F8292019690E
S315000028701007CBD59DF800008842C7D2052002B0CC
S3150000288070BD9DF801008842C2D2F7E79DF80200AC
S315000028908842BFD2F2E79DF803008842BCD2EDE73A
S315000028A06868FFF7AFFD2046D3E700BFAC00FE1F08
S315000028B038B5124C6068FFF7BFFD78B16068FFF766
S315000028C09DFB236893F8283013F0300F054603D09C
S315000028D05B0608D405280DD0032D0BD06068FFF7E2
S315000028E0B1FD002038BD6068FFF7A2FB052DF3D1CE
S315000028F00328F3D140F2971038BD00BFAC00FE1F8D
S3150000290008B5034B01465868FFF7B4FD002008BD23
S31500002910AC00FE1F08B5034B5868FFF7BFFD00204B
S3150000292008BD00BFAC00FE1F08B5034B5868FFF793
S31500002930C5FD002008BD00BFAC00FE1F08B5044B56
S315000029400A4601465868FFF7C9FD002008BD00BFCA
S31500002950AC00FE1F08B5034B5868FFF7E5FD0020E5
S3150000296008BD00BFAC00FE1F08B5034B5868FFF753
S31500002970EBFD002008BD00BFAC00FE1F10B5114CDA
S315000029802368606893F8283013F0300F06D00521CD
S31500002990FFF7BEFA08B1002010BD60680321FFF7FB
S315000029A0B7FA0028F7D101466068FFF7B1FA0028A8
S315000029B0F1D160680121FFF7ABFA80F00100C0B2E7
S315000029C010BD00BFAC00FE1F38B50446FFF702FB82
S315000029D008B9032038BD631E012B11D9042C0FD072
S315000029E02CB1032C03D0052C01D0002038BD114D8D
S315000029F021466868FFF78CFA78B94FF4C87038BD7D
S31500002A000C4B21465868FFF783FA40F291130028D1
S31500002A1014BF18464FF4C87038BD68682146FFF7E2
S31500002A2061FA40F2931300280CBF18464FF4C970A0
S31500002A3038BD00BFAC00FE1F70B506464FF6FE74EB
S31500002A4040F2931501E0013C0CD03046FFF7BCFF85
S31500002A50A842F8D038B16FF4C873C318022B38BF38
S31500002A60002070BD284670BD052814D070B51F4DD6
S31500002A702B6893F8282012060C4612D49A689442C2
S31500002A8016D95B689C4200D970BD68680121BDE813
S31500002A907040FFF73FBC154B1A685268914212D935
S31500002AA07047FFF76BFFD8B92B689A689442E8D84D
S31500002AB093F8283013F0300F09D168680321BDE878
S31500002AC07040FFF727BC58680121FFF723BC6868F0
S31500002AD0064E0521FFF71CFA0028EED03368D0E732
S31500002AE068680421BDE87040FFF714BCAC00FE1F07
S31500002AF0F0B583B00D460446FFF76CFA10B9032013
S31500002B0003B0F0BD5F4E052C2146706806D0FFF776
S31500002B10FFF9D0B140F2911003B0F0BDFFF7F8F91C
S31500002B2010BB3DB37068FFF769FA0528F2D0284656
S31500002B30FFF786FB0028E2D070682978FFF7E8F9EE
S31500002B4000286CD14FF4CA70DAE77068FFF73AFCD8
S31500002B50042811D0631E012B36D9042C3AD0A4B117
S31500002B60032C1AD00020CBE77068FFF765F840F217
S31500002B709110C5E70120C3E7012C01D9032CE9D147
S31500002B8070680321FFF7C6FBE4E770682146FFF78C
S31500002B90A9F9C8B140F29310B2E77068394F2146DF
S31500002BA0FFF7A0F905460028F4D13B68786893F84A
S31500002BB02710FFF7BBF829467868FFF7E1F9786830
S31500002BC021460522FFF7F2F970682146FFF7EAF879
S31500002BD0002095E74FF6FF73214670680193FFF7D3
S31500002BE097F9284B0146B0B170680421FFF7DAF86F
S31500002BF004E0019B43B1019B013B019370680421F2
S31500002C00FFF786F90028F4D0019B002B0CBF4FF488
S31500002C10CD70002074E75868FFF7A6F8E4E7214670
S31500002C207068FFF75FF90028B4D1336893F828304D
S31500002C305B0603D570682978FFF70CFA6978706827
S31500002C40104CFFF763FA95ED010A7068FFF716FA64
S31500002C507068FEF7F1FF336893F82810052001F03D
S31500002C600F01FFF74FFB33685B68984288BF00216E
S31500002C70606898BF0121FFF74DFB70680521FFF7DB
S31500002C8091F86FE7AC00FE1F70B582B00446FFF7FF
S31500002C90A1F910B9032002B070BD2C4D6868FFF78A
S31500002CA0ADF984422BD0052824D0012C2AD068689F
S31500002CB0264E2146FFF72CF9D0B1022C14D0042C55
S31500002CC029D01CB1032C01D0052C11D168681F4DE9
S31500002CD02146FFF707F938B940F29310DBE7706831
S31500002CE02146FFF715F918B168682146FFF7AAF8DB
S31500002CF00020D0E76868FFF79BF9A042D5D140F2E3
S31500002D009110C8E76868114EFFF792FB0028E6D0DD
S31500002D1040F29510BFE770682146FFF793F84FF62B
S31500002D20FF73019304E0019B43B1019B013B0193B7
S31500002D3068680421FFF7ECF80028F4D1019B002B0A
S31500002D400CBF4FF4CD700020A5E700BFAC00FE1FFE
S31500002D5001280FD0022801D00020704708B5084688
S31500002D600021FFF7C5FE40B140F29113984208BF1B
S31500002D70002008BD0846FFF787BF002008BD00BF3A
S31500002D8038B581B306282CD005281CD0042809D0D4
S31500002D9000B3012832D0022837D0032826D00323D7
S31500002DA0184638BD1C4B1A6892F82A20D407F6D567
S31500002DB00D46002401462C605868FFF793FA234617
S31500002DC02860184638BD144B1A6892F82920150653
S31500002DD0EED4E4E7104B1A6892F829201207E7D4DC
S31500002DE0DDE70D4BE4E70123184638BD0A4B1A68A8
S31500002DF092F829205206DBD40346D1E7064B1A681F
S31500002E0092F82920D506D3D4C9E7034B1A6892F85D
S31500002E1029209406CCD4C2E7AC00FE1F38B5114D6C
S31500002E202B6893F82930DB0701D4062038BD002033
S31500002E3000F062FE68680C4CFFF706FC01E06CB11E
S31500002E40013C6868FFF710FC0028F8D0002000F06D
S31500002E5023FE002C0CBF1420002038BD00F01CFE01
S31500002E60142038BDAC00FE1FFFFF0F0038B5114D12
S31500002E702B6893F82930DB0701D4062038BD0020E3
S31500002E8000F03AFE68680C4CFFF7E6FB01E064B11F
S31500002E90013C6868FFF7E8FB0028F8D100F0FCFD6C
S31500002EA0002C0CBF1420002038BD204600F0F4FD95
S31500002EB0142038BDAC00FE1FFFFF0F00F8B51B4DF8
S31500002EC02B6893F82930DB0701D40620F8BD184B90
S31500002ED01E5CFF2E01D10320F8BD002000F00CFE81
S31500002EE06868144CFFF7C0FB0746FFF7BFFF68682A
S31500002EF03146FFF799FB01E08CB1013C6868FFF7AA
S31500002F009DFB8642F8D13FB9002000F0C5FD002C9C
S31500002F100CBF14200020F8BDFFF780FFF4E7002F58
S31500002F20FAD1384600F0B8FD1420F8BDAC00FE1FFB
S31500002F30C8560000FFFF0F0010B5094C236893F830
S31500002F402A309B0701D4062010BD002000F0D4FDD6
S31500002F506068FFF79BFB002000F09EFD002010BD7F
S31500002F60AC00FE1F10B5094C236893F82A309B0766
S31500002F7001D4062010BD002000F0BEFD6068FFF7FA
S31500002F808DFB002000F088FD002010BDAC00FE1F68
S31500002F9070B5124C236893F82A309B0701D406209B
S31500002FA070BD032802D008B1032070BD054600207D
S31500002FB000F0A2FD6068FFF779FB0646FFF7D2FF37
S31500002FC060682946FFF754FB26B9002000F064FD2F
S31500002FD0002070BDFFF7B0FFF7E700BFAC00FE1F93
S31500002FE008B5064B1A6892F82920920701D40620E4
S31500002FF008BD5868FFF7B8FA002008BDAC00FE1FF0
S3150000300008B5064B1A6892F82920920701D40620C3
S3150000301008BD5868FFF7B8FA002008BDAC00FE1FCF
S3150000302008B5074B1A6892F82920520701D40320E5
S3150000303008BD01465868FFF7B7FA002008BD00BF73
S31500003040AC00FE1F08B500F02FFA07EE900AB8EEA6
S31500003050677AF7EE007A87EE877ADFED097ADFED99
S31500003060096A67EE277AC6EEA77AFCEEE77A17EECC
S31500003070900AFFF7AFFA00280CBF1220002008BD07
S315000030800024744900401C4608B903207047FFF726
S31500003090D9BF00BFF0B587B00C460546FEF79AFFCC
S315000030A010B9032007B0F0BD6CB3574E326892F8E2
S315000030B02930190721D52778A079B842F1D8617847
S315000030C08F42EED894F803E0BE45EAD88142E8D3B1
S315000030D023F07F0303F0FF0113B163798342E0D34A
S315000030E092F82A30DB0702D523798342D9D3042DFF
S315000030F00BD1002862D00520D4E76178E0788842B9
S31500003100CFD8A079E2E70120CCE770683E4FFEF702
S3150000311075FF854208D0002D47D0032D45D0052DDB
S3150000312043D06B1E012B60D97068374F6946FFF795
S3150000313069F870680021FFF7EDF80023A1798DF892
S31500003140083028468DF81430FFF7DCF80621039086
S315000031507068FFF7C7F8049002A800F0B5F90028D8
S31500003160A0D19DF80620A3799A4235D221467868E7
S31500003170FFF710F878682946FEF746FF06217068C3
S31500003180FFF7B0F80123049002A88DF8083000F08C
S315000031909BF90446002885D100F086F91B4B0146B1
S315000031A0186048BB4FF4C8707CE770682946FEF784
S315000031B099FE0028B8D140F2931073E763790BB1FA
S315000031C0002998D17068104FFFF732F9002892D184
S315000031D07868FEF713FFA7E778682946FEF714FF1D
S315000031E078682146FEF7D6FFC8E778682946FEF7D5
S315000031F08FFE0028D6D097E72846FFF735FCFFF765
S3150000320021FF20464EE700BFAC00FE1F2001FE1F37
S31500003210002800F086802DE9F047054686B006A80E
S3150000322000232F7800F8113D04A98DF810308DF891
S3150000323011308DF812308DF813308DF814308DF86A
S3150000324015308DF81630FFF7ADFA95F815E0EE7CDF
S31500003250297DEA7DAB7D2C7E8DF808E038468DF819
S315000032600A608DF809108DF80B208DF80C308DF85A
S315000032700D40FEF7AFFE18B9032006B0BDE8F08793
S315000032802B7806AA134413F8103C012BF4D0022C19
S3150000329054D0DFF81081D8F8003093F8283013F0B6
S315000032A0300F14BF06260526002440F2911905F1B9
S315000032B0040A052CE1B25CD002AB185DFFF748FDAD
S315000032C008B14845D9D10134B442F2D13846FFF7A6
S315000032D0B3FB0028D1D1052F25D0FFF74FFB80F097
S315000032E00100C4B205F10C013846FFF7D3FE0028F1
S315000032F0C3D19DF80750AF4210D006AB2B4413F84C
S31500003300100C01282FD0D8F80400FEF791FE06AB6A
S315000033100344014613F8100C012806D0DCB92046F8
S31500003320ABE7012070470446DCE7052DF6D18F4256
S31500003330F4D0FFF70DFD0028F0D09EE72879FEF7C0
S3150000334049FE002898D02B7906AA134413F8103C9E
S31500003350012B9ED190E700F0A7F801463846FFF70B
S3150000336083FB002089E72946FFF7F2FC0028CAD034
S3150000337083E79DF80D30022B9ED128790021FFF7B7
S31500003380B7FB10B148457FF478AF2879FFF754FBB7
S31500003390514600287FF471AF0520FFF7A9FB0028EE
S315000033A091D08EE7AC00FE1F68B1084AB2F8003132
S315000033B003F00103037092F800316FF3000382F803
S315000033C00031002070470120704700BF00C0014057
S315000033D0104991F8043143F0010381F80431B1F842
S315000033E00431DB070CD54FF0FF3300E033B1B1F801
S315000033F00421D20703F1FF33F8D40BB91420704728
S31500003400044A92F8003160F3000382F8003100208C
S31500003410704700BF00C0014070B5214D82B02B68D7
S3150000342098470120FFF7D4FF0021AE680320B0477C
S3150000343001211C4AEC698DF80110032301928DF8D5
S3150000344000300320A047B0F5C97FFAD169460520B0
S31500003450B0470520A047B0F5C97FFAD10022012464
S31500003460022369468DF806208DF801308DF802306A
S315000034708DF805308DF800402B698DF803408DF8E6
S315000034800440052098472B6E04209847AB6A2046D7
S315000034909847EB6A9847AB6D984702B070BD00BF7E
S315000034A05C5600000000A04100B583B002A90023CD
S315000034B041F8043D034B06209B699847019803B0E9
S315000034C05DF804FB5C560000037870B423B1012B51
S315000034D03CD0002070BC704742683E498A426BD996
S315000034E03D4B3E4EF1251D71197A41F004011972CA
S315000034F0197A41F008011972197A41F0010119721D
S31500003500197AF02441F00201B24219721C7105D9F0
S315000035101D71197A41F0100119721C71304B314935
S315000035209A4294BF0123022303731C4691F81C316F
S3150000353003F00703A3423FBF91F81C3123F00703B2
S31500003540234381F81C310378012BC2D18368214AB9
S3150000355093423BD8204BF1221A711A7A22F00402C8
S315000035601A721A7A22F008021A721A7A22F00102E4
S315000035701A721A7AF02122F002021A721971164B87
S31500003580F1221A711A7AF02122F010021A721971B8
S315000035901449037B91F81C2102F00702934298D04C
S315000035A091F81C2103F0070322F00702134381F868
S315000035B01C31002070BC70470B498A42AED8094ABC
S315000035C0037392F81C31002070BC7047034A934283
S315000035D0DED8D4E7000E27070020004000C2EB0B20
S315000035E00068890900C0014000B4C404037843F0B0
S315000035F003030370704700BF014B0360704700BFB1
S31500003600D4560000044B002103F1300243F8041B9A
S315000036109342FBD1704700BFD800FE1F024B43F810
S3150000362020100020704700BFD800FE1F08B57A4B57
S31500003630B3F84031D90700F1C180774BB3F8403178
S315000036409A0700F1B080744BB3F840315B0700F184
S315000036509F80714BB3F84031180700F18E806E4B96
S31500003660B3F84031D9067CD46B4BB3F84001C0F3B4
S315000036708010002869D1684BB3F840311A0658D437
S31500003680654BB3F84031DB0547D4634BB3F84031A3
S31500003690980536D4604BB3F84031590524D45E4BB7
S315000036A0B3F840311A0512D45B4BB3F84031DB0452
S315000036B000D408BD594BDB6A002B40F0AA80564A5D
S315000036C0B2F8303143F48053A2F8303108BD534B81
S315000036D09B6A002B40F09A804F4AB2F8303143F48F
S315000036E00063A2F83031DFE74C4B5B6A002B40F0F9
S315000036F08A80494AB2F8303143F48063A2F8303107
S31500003700CDE7464B1B6A002B7AD1434AB2F83031DB
S3150000371043F40073A2F83031BCE7404BDB69002B61
S315000037206BD13D4AB2F8303143F48073A2F83031A0
S31500003730ABE73A4B1B68002B5CD1374AB2F8303105
S3150000374043F08003A2F830319AE7344B5B68002BD4
S315000037504ED1314AB2F8303143F04003A2F830314D
S3150000376089E72E4B9B69002B3FD12B4AB2F83031AB
S3150000377043F01003A2F8303176E7284B5B698BBB28
S31500003780254AB2F8303143F00803A2F8303166E733
S31500003790224B1B691BBB204AB2F8303143F00403AD
S315000037A0A2F8303155E71D4B9B68ABB91A4AB2F8FF
S315000037B0303143F00203A2F8303144E7174BDB689F
S315000037C03BB9154AB2F8303143F00103A2F8303163
S315000037D033E703209847F4E702209847E6E70420FA
S315000037E09847D8E705209847CAE706209847BCE7D8
S315000037F09847AEE7002098479FE70720984790E74D
S315000038000820984781E70920984772E70A209847D9
S3150000381062E70B20984752E700600040D800FE1F81
S3150000382030B4124902784588895C447801F01F0358
S31500003830890614D501212B2A01FA03F008D0332A70
S3150000384004D1012C04BF5A1C04FA02F030BC7047A4
S31500003850072DFBD9013301FA03F030BC70472C4425
S315000038601B1B0120984030BC704700BF105B000056
S315000038700378452B12D870B5164CE65CFF2E0BD09C
S3150000388015460C46FFF7CCFF134BB20953F822300E
S3150000389034B1B20611D585B9032070BD0120704739
S315000038A0EFF31082012181F31088196821EA0000E4
S315000038B0186082F31088204670BDEFF31082012154
S315000038C081F3108819680843186082F31088002075
S315000038D070BD00BF105B0000005B000000210A46BF
S315000038E0FFF7C6BFA0F101000028FBD1704700BF5B
S315000038F02DE9D04301FB00F4FFF7D6FD4FF47A71B2
S31500003900A4FB018900274FF0FF364F4508BF464507
S315000039100C4BB3FBF0F005D3B8FBF0F0800860B9B0
S31500003920BDE8D0838000B4FBF0F0A0FB01018F421C
S3150000393008BF8642F3D24FF0FF30BDE8D043FFF711
S31500003940D1BF00BF00CA9A3B002808DB800000F107
S31500003950804000F5C640036823F480330360704757
S315000039600B4A0C4B10B49B1A0B4CDB08236063B15B
S315000039700A4800219388C3F3090340F8043F2368EB
S3150000398001318B4202F10802F4D85DF8044B70470E
S3150000399000050000080500000801FE1FFC6200404B
S315000039A0164B10B41C687CB1154B00681A68136876
S315000039B0984218BF002304D10AE052F8041F81423E
S315000039C007D00133A342F8D103205DF8044B7047BA
S315000039D000230C4A12680121134403E0C3E8401F88
S315000039E00028F2D0D3E84F2F12F0FF0FF6D0BFF326
S315000039F02F8F08205DF8044B704700BF0C01FE1F97
S31500003A001001FE1F1401FE1F0F4B10B41C687CB181
S31500003A100E4B00681A681368984218BF002304D139
S31500003A2009E052F8041F814206D00133A342F8D1BF
S31500003A305DF8044B70470023054A12680021D154F3
S31500003A405DF8044B704700BF0C01FE1F1001FE1FFE
S31500003A501401FE1F38B50A4C0A4D0B480B490C4B96
S31500003A600C4A04602D1BAD080D601A603DB104EBD5
S31500003A70850520460434FFF7C7FFAC42F9D138BDAF
S31500003A8008050000B80600001001FE1F0C01FE1F0D
S31500003A901401FE1F1000FE1FEFF31081012383F3B4
S31500003AA01088124B33F8102092B22AB133F8102046
S31500003AB0013A92B223F8102033F810309BB293B932
S31500003AC010B40B4A0B4CB2F8FE3334F810009BB21C
S31500003AD043F4254323EA0003A2F8FE3381F310885A
S31500003AE05DF8044B704781F3108870471801FE1F7C
S31500003AF000E001405C5B000030B4EFF3108401236A
S31500003B0083F310880D4A32F810309BB25BB90C4D26
S31500003B100C49B5F8FE3331F810109BB243F4254337
S31500003B200B43A5F8FE3332F8103001339BB222F86E
S31500003B30103084F3108830BC704700BF1801FE1F98
S31500003B4000E001405C5B0000024B00221A805A80B4
S31500003B509A8070471801FE1F00BE704708B500F036
S31500003B6005F800F0E1F9FEE7704700BF284A38B5CE
S31500003B70D2F8883043F47003C2F888300020FFF78B
S31500003B80F3FFFFF73FFD234B1B689847FFF7DCFF6A
S31500003B90FFF742FC204A214B21481B680024148071
S31500003BA09847204A204B9B1A05D01344214603F818
S31500003BB0011D9A42FBD11D481D4BC01A07D01D4A54
S31500003BC0184412F8011B03F8011B8342F9D1FFF7D1
S31500003BD06BFC194C194B1A4D18602D1B0120FFF771
S31500003BE0C3FF032DC8BF2D1904DD54F8043B9847C5
S31500003BF0AC42FAD1FFF72EFFFFF7B2FE114B124887
S31500003C001B6898470020BDE8384000F01FB800BF89
S31500003C1000ED00E000560000D000FE1F0855000031
S31500003C20C85B0000B400FE1FC003FE1F7C00FE1F21
S31500003C300000FE1F605F00000400FE1F2001FE1F43
S31500003C400800FE1F1C560000645B000000F042B82E
S31500003C5082B04FF0C84300210091009A1A7D61F3AB
S31500003C6000021A751A8DD0B1202161F30F221A8530
S31500003C701A8D4FF0C04142F080021A850A68009200
S31500003C8040F6FF721946019204E0019B013B019345
S31500003C90019A12B18A6A5206F7D502B0704742F409
S31500003CA07F421A851A8D4FF0C04160F3C7121A85FC
S31500003CB00A68009240F6FF711A46019105E0019BE1
S31500003CC0013B0193019B002BE7D0936A5B06F6D478
S31500003CD002B07047F8B54D490A684FF0C844002352
S31500003CE022F0400210200A602063A361236263630E
S31500003CF0C4F80438227A63F304022272237DFF2279
S31500003D0043F0010323752261237D662243F00103FC
S31500003D1023752261237D992243F0010323752261D5
S31500003D20237D43F00103237501212320FFF7E0FDE6
S31500003D309F232361364B22691A7022695A702169C2
S31500003D40227D997042F0010222751A78EF2A04D07A
S31500003D5000221A705A709A70F8BD5A78402AF7D124
S31500003D609A78172AF4D1052020612A4923690B7015
S31500003D70227D294B42F001023526227526612269F1
S31500003D801A70227D42F001022275228D042565F308
S31500003D90030222852279502765F3030222712761E7
S31500003DA0227D42F0010222751A78012742F00202B2
S31500003DB01A7027610A7822611A782261227D3A43B5
S31500003DC022752561227D3A432275228860F302021C
S31500003DD02280206122690A70227D3A43227526617B
S31500003DE022691A70237D3B432375238843F04003E1
S31500003DF02380A369DB074FF0C845FAD40120FFF7FB
S31500003E0027FF2B7D6FF300032B75F8BD0070044070
S31500003E102401FE1F2801FE1F2C01FE1F704700BF54
S31500003E2008B500F057F8BDE8084000F083B800BFB9
S31500003E3030B5104D104B2A6889B04FF48060B82118
S31500003E4000930123D41801900293039304930593DE
S31500003E5006910A480A490B4A2C60002300F008F92B
S31500003E6008B909B030BD0548002109B0BDE83040A9
S31500003E7000F00EB83002FE1FC023FE1F5801FE1FC1
S31500003E809C5B0000213E0000FFF7C8BF704700BFE3
S31500003E9000BE70470B4B0C4970B500240B4E1C60DE
S31500003EA0054601220A4834701C2300F06BF818B14D
S31500003EB021460748FFF7ECFFFFF7BAFF2846FFF752
S31500003EC0E5FF70BD3002FE1FB45B00001002FE1F4E
S31500003ED01402FE1F10B511484FF0FF3100F0A6F88E
S31500003EE0B8B90F4B1A7802B110BD01220D4C1A70E9
S31500003EF0FFF7CAFF2368013B2360002BF4D0074875
S31500003F0000F0AAF80028F5D004480021FFF7C0FF0A
S31500003F10F0E702480021FFF7BBFFE2E71402FE1FAD
S31500003F201002FE1F3002FE1F08B572B600F086F9B9
S31500003F30002008BD08B5074B1C689D6859682A68AB
S31500003F4020469047AB6820469847012000F02EFB9C
S31500003F50FBE700BF905B0000074B084A99681868AA
S31500003F6010B500238C6911680122A047044A136822
S31500003F700133136010BD00BF905B00003402FE1FCA
S31500003F804C01FE1F08B11C2B01D00C207047F8B560
S31500003F90EFF3108372B6DFF890E0DEF800400134EC
S31500003FA0CEF8004083F310881C4C1D4B25681C6816
S31500003FB055B1A04218BF002302D105E0A04203D0AC
S31500003FC00133AB426469F9D1054617460E46EFF355
S31500003FD0108372B6DEF80020013ACEF8002083F393
S31500003FE0108800F015FBA54215D0EFF305830D4AA6
S31500003FF011680B4308D0EFF3058312681343B3F13E
S31500004000F03F01D21320F8BD284631463A46BDE8B6
S31500004010F84000F03BB90C20F8BD00BF5802FE1F67
S315000040204802FE1F0000FE1F0403FE1F18B1084BC6
S3150000403002689A4201D00C20704739B1EFF305832C
S31500004040044A1268134301D00420704700F048B9AF
S31500004050414D45530000FE1F18B10268034B9A42BA
S3150000406001D00C20704700F081B900BF414D455387
S315000040702DE9F04F85B00EAD129C0194139C00946F
S3150000408095E82007149C08B1B82C03D00E2005B083
S31500004090BDE8F08FEFF3108472B6DFF814E1DEF8B6
S315000040A000600136CEF8006084F310883D4E3E4C29
S315000040B036680296246836B3A04224D008F1FF364B
S315000040C02E4400278B460393E1688D423ED3236935
S315000040D09D423BD24FF0010C00258E4207F10107AD
S315000040E005D321698E423CBF4FF0010C0025029991
S315000040F0D4F888408F4204D0A04202D0BCF1010F10
S31500004100E2D1039B59460746029316468B46EFF3C8
S31500004110108372B6DEF80020013ACEF8002083F351
S31500004120108800F075FAA742B0D06DB166B1B8F14B
S31500004130C70F0ED9B9F11F0F0DD8D1450DD3009B6E
S31500004140012B0CD91020A2E70320A0E74FF0000CAA
S31500004150C3E705209BE70F2099E7182097E7EFF3C1
S315000041600583124A11680B4308D0EFF305831268E2
S315000041701343B3F1F03F01D2132088E7019B12935A
S31500004180009B1393029B0E95384659463246CDF84E
S315000041903C80CDF84090CDF844A005B0BDE8F04F86
S315000041A000F00EB9FC02FE1FF402FE1F0000FE1F07
S315000041B00403FE1F2DE9F04700F0A0F9DFF868A020
S315000041C0DFF86890DFF86880104F114E114D124CE1
S315000041D000F054FBDFF85CC0DFF85CE00F481049E4
S315000041E0104A0023CAF80030C9F80030C8F8003079
S315000041F0CCF80030CEF800303B6033602B60236093
S3150000420003600B601360BDE8F08700BF5C02FE1F11
S315000042106002FE1F5402FE1F4C02FE1F6802FE1FB4
S315000042204002FE1F3C02FE1F4802FE1F5802FE1FF0
S315000042306402FE1F4402FE1F3802FE1F10B50E4C1C
S31500004240236813F10F3F0AD04FF0F033236000F0DC
S3150000425093FBFFF7AFFF094A136801331360084A5F
S315000042604FF0F03310682360FFF714FE002323603D
S31500004270BDE8104000F0C6BB0000FE1F0403FE1F91
S315000042805002FE1F704700BF704700BF70B504465E
S315000042900E46154600211C2201F0F2F86660A56064
S315000042A0EFF3108072B60B4A0B49136821600B4975
S315000042B05BB109688D698C616C61A56161610133CF
S315000042C0136080F31088002070BD6461A4610C60E7
S315000042D0F5E700BF5802FE1F414D45534802FE1F39
S315000042E0F8B5EFF3108272B68368002B2ED119B998
S315000042F082F310880D20F8BD194B1C68002CF7D1ED
S31500004300184C05692468184FD4F8B460E066013685
S31500004310A766C4F8B460FDB1C6682667776F67679D
S315000043203C6774671E68013501364FF0060E01279B
S3150000433005611E60E164C4F830E0A76382F310886B
S31500004340204600F0F9F9D4F88400F8BD013B8360FB
S3150000435082F310880020F8BDC46024676467E1E733
S315000043600403FE1F0803FE1FE54C000038B5EFF3FB
S31500004370108472B60369D3B15A1EC16815D00B6F8B
S315000043804D6FC3605D672B6703460C481A6103686F
S315000043900022013303608A66C1F8842084F3108802
S315000043A0084600F053F9002038BDC260ECE7836888
S315000043B00133836084F31088002038BD0403FE1F98
S315000043C02DE9F84FDDF828800B9D0C9C0E9E0746C4
S315000043D08B469246EF212A464046994601F050F810
S315000043E00021B822384601F04BF80D9BC7F828B0DB
S315000043F06A1E424420219C42C7F844A0C7F8489050
S31500004400C7F80C807D613A61FC62C7F89840BE61CE
S31500004410FE61C7F8A01057D00023FB63C7F89C3095
S3150000442003222E4BBF653A637B6538462C4900F064
S31500004430CBFBEFF3108572B62A482B4A03683A6025
S315000044402A4AE3B9C7F88870C7F88C701760284AFB
S315000044500133116803600F9B0131012B11601AD0E3
S3150000446085F31088EFF3108372B611680139116075
S3150000447083F3108800F0CCF80020BDE8F88F1268AE
S31500004480D2F88C10C2F88C70C1F88870C7F88C10FE
S31500004490C7F88820DBE7EFF30583164A1268134353
S315000044A0B3F1F03F14D3144B1C68A4B1E36AE66B76
S315000044B0E36385F31088384600F0C8F8002CDBD09B
S315000044C0E6630020BDE8F88FFC63C7F89C40A7E7C9
S315000044D000263446EDE72646EBE700BF3D480000E0
S315000044E065450000FC02FE1F44524854F402FE1FBC
S315000044F00403FE1F0000FE1F0C03FE1FF8B5002478
S315000045000E4BDFF85CE00E4E0E4F0F48346021462E
S31500004510202580221D60CEF800403C6000F0B0FFF0
S315000045200A4A0B4E13680B4D0B480C49346043F096
S31500004530C5732C6004600C601360F8BD1003FE1F89
S31500004540F002FE1F0C03FE1F6C02FE1FF802FE1F88
S31500004550F402FE1FFC02FE1F0403FE1FEC02FE1FF8
S315000045600803FE1F38B50E4B1C68636CA06C984799
S315000045700C4B1B680BB120469847EFF3108372B6BD
S3150000458009480268012100250132E56402602163C1
S31500004590A16383F310882046BDE8384000F0CCB80C
S315000045A00803FE1FEC02FE1F0403FE1F70B5EFF3A7
S315000045B0108272B6134B1C682CB1EFF305831249B7
S315000045C009680B4303D082F31088132070BDA8B18D
S315000045D00E4B19680029F6D11D68C4F8841004260C
S315000045E0691C0125E06419602663A56382F31088BF
S315000045F0204600F0A1F8D4F8840070BD82F310883C
S3150000460070BD00BF0803FE1F0000FE1F0403FE1F4F
S315000046100A4B1B688BB90A4A0A4B12681B689A42F6
S315000046200BD0094B4FF080525A60EFF3058323B944
S31500004630EFF3108362B683F3108870470403FE1FFE
S315000046400803FE1F0C03FE1F00ED00E0F8B504464C
S31500004650EFF3108572B6436E002B3ED04C3000F05F
S3150000466075F92E4AA16B1368013B1360236BB9B928
S31500004670FBB92B482B4B196885F3108803689942C0
S315000046800DD013685BB9284B4FF080525A60EFF398
S31500004690058323B9EFF3108362B683F31088F8BD60
S315000046A0013B012BE5D9636B93B91D48A3632363D3
S315000046B0E0E7636B63B9E16A1C48236350F8213075
S315000046C06BB1596A16480C625C6261622362D1E77B
S315000046D00021032361632363CBE7C364C1E7144F5F
S315000046E040F821403B68134E246201208840034372
S315000046F03B603368646299420948BBD20368316003
S315000047004BB1DB6B9942B5D2046085F31088136810
S31500004710002BB8D0C3E70460ACE700BF0403FE1F5C
S315000047200C03FE1F0803FE1F00ED00E06C02FE1FD7
S31500004730F002FE1F1003FE1FF8B5384B04461D6835
S31500004740EFF3108672B6A8423BD0354AA16B1368C8
S31500004750012903F1FF33136014D0324B86F310881E
S315000047601B689D420DD013685BB92F4B4FF08052EA
S315000047705A60EFF3058323B9EFF3108362B683F330
S315000047801088F8BD236AE06A4FF0000EA342C4F811
S3150000479038E021D0254F616A57F820E05962A645D6
S315000047A00B622ED01F4B19688C42D7D1204909685D
S315000047B057F82110196086F310881368002BD4D09F
S315000047C0DFE7C36C013B033302D84C3000F094F8AA
S315000047D0184BE2691A60B8E7174B144F814047F847
S315000047E020E0186820EA0101196069B910480D4BEC
S315000047F020240460196086F310881368002BB4D057
S31500004800BFE747F82030CDE74B4209480B40B3FAE3
S3150000481083F3C3F11F030360C4E700BF0803FE1F51
S315000048200403FE1F0C03FE1F00ED00E06C02FE1FDA
S315000048301003FE1F9C03FE1FF002FE1F10B4EFF3D1
S31500004840108472B6026B042A0BD0826ED0F8B410B4
S3150000485084F3108812B15DF8044B10475DF8044BE1
S315000048607047054A13680133136084F310885DF8B6
S31500004870044BFFF7EBBE00BF0403FE1FF8B5124D55
S31500004880124E134BDFF868C0DFF868E0114F0024C2
S3150000489021468022346028460F4E3C601C60CCF8CE
S315000048A00040CEF800400D4F00F0EAFD0C480D49DF
S315000048B00D4A0E4B356005F180063D6006600C60C2
S315000048C014601C60F8BD00BF1803FE1F9803FE1F8E
S315000048D0A803FE1FB803FE1FAC03FE1F1403FE1F32
S315000048E0A003FE1FA403FE1FB003FE1FB403FE1F9A
S315000048F0BC03FE1F9C03FE1F0268531ED91C01D871
S31500004900816901B170470E49202A0E4A096812686A
S3150000491094BF9B007C230B44934203D30A49096846
S315000049209B1A0B441A6832B15169086150614161A2
S31500004930026183617047006140611860F9E700BF5A
S315000049401403FE1FA003FE1FAC03FE1F826962B1A3
S31500004950036998420AD0416959610B611168814225
S3150000496004BF9A6113600023836170471368834212
S31500004970F9D100231360F6E710B472B6184A194B42
S3150000498019491468194A1A600A681948194B0460CB
S3150000499042F001020A6018481B68A0FB03235B096A
S315000049A0013BB3F1807F09D2144A15485360F024C5
S315000049B00021072380F8234091601360104BF022FA
S315000049C00021DA7783F8222083F82310EFF3148C82
S315000049D02CF0040C8CF314885DF8044B704700BF70
S315000049E0000000005002FE1F001000E0C427FE1F5A
S315000049F00003FE1F2001FE1F1F85EB5110E000E0A3
S31500004A0000ED00E0114B124C1248134900222260BF
S31500004A109A809A821A801A829860D9609861D961C0
S31500004A20EFF3088282F309880C48B0F8202192B28D
S31500004A30012142F48052A0F820219980998262B621
S31500004A40074B4FF080525A60FEE700BF000D004052
S31500004A500403FE1FC013FE1FC023FE1F006000409C
S31500004A6000ED00E070B42448244C2549254A264D23
S31500004A704AF2025608E062B6BFF34F8F30BFBFF36B
S31500004A806F8F1368012B22D072B623680360036808
S31500004A90BBB98B89C3F3C03313601368012BEAD10A
S31500004AA0B1F8FE339BB22B60A1F8FE638B89C3F38A
S31500004AB00E038B812B6843F425439BB2A1F8FE338A
S31500004AC0D9E7124B4FF000625A6070BC704772B65D
S31500004AD0B1F8FE339BB22B60A1F8FE638B896FEAB7
S31500004AE043436FEA53438B812B6843F425439BB2C0
S31500004AF0A1F8FE3362B6C7E70803FE1F0C03FE1FCC
S31500004B0000E001405401FE1F5001FE1F00ED00E0D1
S31500004B1027480168002947D0EFF30983A3F1200352
S31500004B2083F3098803F1200323E9F00F1EF0100F29
S31500004B3007D1A3F1400383F3098803F1400323ED72
S31500004B40108A8B601B4D2D6841F805E01A4C2368CE
S31500004B5013B18B6100232360184E72B633680BB114
S31500004B60036001E0FFF77EFF366862B670680130C9
S31500004B707060B069206012484FF000014161F16831
S31500004B8081613169C161B36856F805E01EF0100F06
S31500004B9001D1B3EC108AB3E8F00F83F309884FF024
S31500004BA0010141617047FEE7034C024D2D68D3E7D2
S31500004BB00803FE1F505F00009C03FE1F0C03FE1F30
S31500004BC0000D004000F024B80269A2F1400222F074
S31500004BD007024FF00003136053609360D3601361C4
S31500004BE05361C36893614FF00003D361136253624C
S31500004BF09362D36213634FF0FF33536391634FF0B5
S31500004C008073D36382606FF00203C0F89030704700
S31500004C1029492A480A680368013210B50A601BB19F
S31500004C20013B0360002B2AD0254B264C1A682168CD
S31500004C30106800282ED0244B01221A6000F0CCF810
S31500004C402368CBB9214B1B685BB1214A126893429A
S31500004C5007D0204B1B6823B91F4B4FF080525A6078
S31500004C6010BD10BD1D480068043282421A601ED075
S31500004C70154B1B68002BE1D100F074F8E2E7104BEE
S31500004C80104C1A681068012121600028EAD00E4BEA
S31500004C901960D3E711480068043282421A6006D0D0
S31500004CA00029E5D1084B1B68002BCBD0C6E70C4A80
S31500004CB012681A60F4E700BFBC03FE1F9C03FE1FC8
S31500004CC01403FE1FB803FE1F9803FE1F0C03FE1FEE
S31500004CD00803FE1F0403FE1F00ED00E0A003FE1FF5
S31500004CE0AC03FE1F38B5EFF3108372B61A4A846E12
S31500004CF0944202D083F3108838BDD0F8B4208A429B
S31500004D00F8D1C26E002AF5D0144914688C42F1D14C
S31500004D1011690029EED00139002484661161C1B100
S31500004D20D568016F446F4C678542216711D0026BCD
S31500004D30062ADFD10A490A680D2401320A60C0F842
S31500004D40844083F31088FFF781FCEFF3108372B67B
S31500004D50D0E7D160EBE700BFE54C0000414D45537D
S31500004D600403FE1F164B1B68EFF3108272B615493B
S31500004D700020086093B1196B81B9186AD96910B41B
S31500004D80114C99619842216003D0D96ADB6B994234
S31500004D9007D082F310885DF8044B704782F31088C1
S31500004DA070470A4B0A4C43F821002068094953F81A
S31500004DB020300B6082F310885DF8044B704700BF0B
S31500004DC00803FE1FB803FE1F9C03FE1F6C02FE1F96
S31500004DD01003FE1F0C03FE1F2DE9F04F83B0EFF307
S31500004DE0108A72B6394B1D68002D5BD1384B1B6893
S31500004DF0002B57D0374E354ADFF8E080DFF8E090D9
S31500004E000123B346136033681B6800930BB1C3F8E4
S31500004E1018D03368002018603368D8F800000433CF
S31500004E20834233604CD02A4A002313608AF31088E9
S31500004E30EFF3108A72B61F4615E0203B01A82360E7
S31500004E4024610194A0610023C9F800408AF3108808
S31500004E500BB128469847EFF3108A72B6019BC9F842
S31500004E6000709C4227D0009CB4B1236901979C42F4
S31500004E701FD06069586100930361C3F818D0236896
S31500004E80202BDAD860682060A368E56878B101A8AD
S31500004E9024610194A061D7E70D4B1B68002BB2D1AA
S31500004EA00A4A13608AF3108803B0BDE8F08FA06148
S31500004EB0CAE70097E3E7A7612046FFF71DFDD2E7A3
S31500004EC0054B1B68CBF80030ADE700BFA403FE1FFF
S31500004ED09803FE1F1403FE1FAC03FE1FA003FE1F54
S31500004EE0A803FE1F53B94AB9002908BF00281CBFF2
S31500004EF04FF0FF314FF0FF3000F03CB882B0EC4687
S31500004F002DE9005000F01EF8DDF804E002B00CBCFC
S31500004F10704700BF2DE9F041069C154606460F4630
S31500004F20984600F029F805FB01F300FB0838A5FBBD
S31500004F300023B21A434467EB0303C4E90023BDE828
S31500004F40F08100BF2DE9F041069C904606460F46CB
S31500004F501D4600F05FF900FB05F5A0FB082308FBE2
S31500004F600155B21A2B4467EB0303C4E90023BDE8DD
S31500004F70F08100BF704700BF00292DE9F043C0F261
S31500004F80A6800026002BC0F29C80884694469E464A
S31500004F90154604460F46002B3DD18A4259D9B2FA2E
S31500004FA082F33BB1C3F120029F4020FA02F29D40FA
S31500004FB017439C40290C220CB7FBF1FEA8B201FB5B
S31500004FC01E7742EA074700FB0EF3BB420AD97F1958
S31500004FD00EF1FF3280F00581BB4240F20281AEF154
S31500004FE0020E2F44FF1AA4B2B7FBF1F301FB1377AD
S31500004FF044EA074700FB03F0B84208D97F1903F1DA
S31500005000FF3280F0F080B84240F2ED80023B43EA86
S315000050100E43002203E08B420FD900221346341CB4
S3150000502018BF012460424FF0000565EB450158406A
S31500005030514000196941BDE8F083B3FA83F2002AB2
S3150000504040F086808B4202D3844500F2DB80012348
S31500005050E5E712B90123B3FBF2F5B5FA85F00028AE
S315000050603BD1781B4FEA154E1FFA85FC0122B0FB97
S31500005070FEF8210C0EFB180741EA07470CFB08F364
S31500005080BB4207D97F1908F1FF3102D2BB4200F2B9
S31500005090BD808846FF1AA4B2B7FBFEF30EFB13775A
S315000050A044EA07470CFB03FCBC4507D97F1903F10B
S315000050B0FF3102D2BC4500F2A7800B4643EA084303
S315000050C0ADE752426FEA060663EB43035DE74042F3
S315000050D061EB41014FF0FF3654E7C0F1200224FA9C
S315000050E002F107FA00F385404FEA154ED7401943FF
S315000050F0B7FBFEF20B0C0EFB12771FFA85FC43EA98
S3150000510007430CFB02F79F4204FA00F407D95B1928
S3150000511002F1FF3074D29F4272D9023A2B44DF1B50
S3150000512089B2B7FBFEF80EFB187341EA03430CFB8A
S3150000513008F79F4208D95B1908F1FF315CD29F42FC
S315000051405AD9A8F102082B44D81B48EA02428EE736
S31500005150C2F120032CFA03F10EFA02FE20FA03F73D
S3150000516041EA0E0E08FA02F028FA03F14FEA1E454C
S315000051703843B1FBF5F8030C05FB18111FFA8EF73F
S3150000518043EA014107FB08F38B420CFA02FC09D9FA
S3150000519011EB0E0108F1FF3930D28B422ED9A8F15E
S315000051A002087144C91A80B2B1FBF5F305FB13116D
S315000051B040EA014107FB03F78F4208D911EB0E01C4
S315000051C003F1FF3016D28F4214D9023B714443EAF1
S315000051D00843C91BA3FB0C89494509D305D0002206
S315000051E01DE79646FEE6134611E794404445F6D27F
S315000051F0013BF4E70346EAE78846A5E7C846D1E758
S3150000520002468CE713460AE7023B57E7A8F1020875
S315000052102F443FE72DE9F041002B44D18A42154641
S3150000522004464FD9B2FA82F70E464FB1C7F12003B2
S31500005230B94020FA03F602FA07F50E4300FA07F41E
S315000052404FEA154E230CB6FBFEF0AFB20EFB106113
S3150000525043EA014307FB00F1994209D95B1900F1C2
S31500005260FF3280F0EC80994240F2E98002382B440C
S315000052705A1AA4B2B2FBFEF30EFB132244EA024210
S3150000528007FB03F7974208D9521903F1FF3180F063
S31500005290D880974240F2D580023B43EA0040002680
S315000052A03146BDE8F0818B4247D8B3FA83F6002E2B
S315000052B048D18B4202D3824200F2CD800120314692
S315000052C0BDE8F08112B90125B5FBF2F5B5FA85F80E
S315000052D0B8F1000F77D14A1B4FEA154EAFB201263F
S315000052E0B2FBFEF0230C0EFB102143EA014107FB43
S315000052F000F38B4207D9491900F1FF3202D28B42E3
S3150000530000F2BA801046C91AA4B2B1FBFEF30EFB36
S31500005310131144EA014407FB03F7A74208D96419AD
S3150000532003F1FF3280F08F80A74240F28C80023B6F
S3150000533043EA00403146BDE8F0810026304631465A
S31500005340BDE8F081C6F1200422FA04F5B3402B43F0
S3150000535020FA04FC01FA06F721FA04F54FEA134E87
S315000053604CEA0707B5FBFEF8390C0EFB18551FFA79
S3150000537083FC41EA05450CFB08F1A94202FA06F254
S3150000538004D9ED1808F1FF3467D3A0466D1ABFB2F1
S31500005390B5FBFEF40EFB145547EA05410CFB04FC75
S315000053A08C4504D9C91804F1FF355CD32C4644EA70
S315000053B00844CCEB0101A4FB0223994248D344D014
S315000053C0204600266CE7C8F1200401FA08F305FA26
S315000053D008F520FA04F7E1404FEA154E1F43B1FBEA
S315000053E0FEF63A0C0EFB16111FFA85FC42EA014343
S315000053F00CFB06F29A4200FA08F407D95B1906F18B
S31500005400FF3137D29A4235D9023E2B449B1ABFB29E
S31500005410B3FBFEF00EFB103347EA03430CFB00F12F
S31500005420994207D95B1900F1FF3221D299421FD95F
S3150000543002382B445A1A40EA0646674650E7104699
S3150000544016E70B4629E7134672E7B0409042B7D2FB
S31500005450601E002624E7304622E7A94295D9A8F126
S3150000546002081D4492E78C45A0D9023C19449EE7E8
S315000054701046DFE70E46C9E70238294443E700BF76
S3150000548002440346934202D003F8011BFAE7704731
S315000054904275696C7420776974682052656E65730D
S315000054A061732053796E657267792028544D2920DF
S315000054B0536F667477617265205061636B616765CF
S315000054C02076657273696F6E20312E352E302B6211
S315000054D075696C642E333734633933366239623515
S315000054E033000000312E352E30000000000005018B
S315000054F0F8B500BFF8BC08BC9E467047F8B500BFBB
S31500005500F8BC08BC9E4670470D0C00002D0B000031
S31500005510850C000005090000AD0700003D080000ED
S31500005520D50A000015070000B1080000090A0000AE
S3150000553085070000050800005D070000D10900008E
S3150000554099080000020403040404FFFF151200007A
S31500005550F10E0000190F0000690F0000410F000056
S31500005560B50F0000BD1000003510000071110000DD
S31500005570550D000009010401000103070F1F3F7FBD
S3150000558000010102010202030102020302030304F5
S3150000559001020203020303040203030403040405D5
S315000055A001020203020303040203030403040405C5
S315000055B002030304030404050304040504050506A5
S315000055C001020203020303040203030403040405A5
S315000055D00203030403040405030404050405050685
S315000055E00203030403040405030404050405050675
S315000055F00304040504050506040505060506060755
S31500005600F11700001917000041170000AD1800003F
S3150000561071170000DD17000006010301851B00005D
S31500005620551B0000F11A0000051B0000191B0000A5
S315000056302D1B0000411B00000301020101000200B6
S315000056400400FFFF010002000300FFFF000001004D
S315000056500200FFFF0000010000000200F12600002A
S3150000566011320000F12A0000892C0000953000005C
S31500005670A5270000812D0000C9290000CD270000C4
S31500005680B128000001290000152900002929000081
S315000056903D2900005529000069290000BD2E0000A3
S315000056A01D2E00006D2E0000912F0000392F0000E6
S315000056B0652F0000E12F00000130000021300000BE
S315000056C089300000DD26000004FF000201FFFFFF15
S315000056D00B01030140420F000000000040420F0092
S315000056E0000000000400000002000000002D31014F
S315000056F000366E0130040201020A1E00D0FE0100CF
S3150000570002000310040000001C000000130000004B
S31500005710030E0010FFFFFFFFFFFFFFFFFFFFFFFF6E
S31500005720FFFFFFFF52374653374732374833413082
S315000057303143464357533134343141313030000020
S315000057400000000002B06400F00000000100081034
S31500005750F3E0BFB6057933498B43F24F1693A05D4C
S315000057601E7A1DD8700D7A8242786A5EC35C0B1968
S315000057700400501100000040FFFF0008FFC11008A0
S315000057801FFF1B057F0028073F002F063E8047802E
S315000057904C806A0064806B00820056806E00BD807B
S315000057A0B08083006F005B80700072007100730030
S315000057B0740075008A8086808D80CF8076006C00AC
S315000057C06D00B5807B007A007C00A08077007800B1
S315000057D0790090809A80978084009D80A3807D00C8
S315000057E0D580D880A6808500AD80A980DE807E0029
S315000057F07F00800081000000060702100000000004
S31500005800FFFF000000200000000100000000010072
S31500005810FFFF3F00008000000001000006070110A6
S3150000582000001040FFFF1040400000000400000090
S315000058300A000410070B0B0F0000FE1FFFFFFF1FDF
S3150000584000000020FFFF032000000420FFFF0720C8
S3150000585000E00F20FFFF0F200107001008004000A6
S31500005860005000400803011000520040015F001084
